:020000040800F2
:10000000306100202903000801610008295300081D
:10001000E15D0008D50E00085776000800000000DA
:10002000000000000000000000000000690200085D
:10003000132A000800000000C5020008A566000899
:100040004303000843030008430300084303000878
:100050004303000843030008430300084303000868
:10006000430300084303000843030008E525000894
:10007000F1250008FD2500080926000815260008BE
:100080002126000843030008430300084303000837
:10009000D90E000843030008430300084303000887
:1000A0004303000843030008430300084303000818
:1000B000B967000843030008C56700084303000848
:1000C00043030008430300084303000843030008F8
:1000D0005963000889740008E97400084175000834
:1000E00043030008430300084303000843030008D8
:1000F0004303000843030008430300082D260008BB
:1001000043030008430300084303000843030008B7
:100110004D6C0008656C00084303000843030008A9
:10012000430300084303000839260008430300087E
:100130004303000843030008430300084303000887
:10014000590F000843030008430300084303000855
:100150004303000843030008452600084303000842
:100160004303000843030008430300084303000857
:100170004303000843030008430300080000000095
:10018000430300084303000800F002F800F05CF8A5
:100190000AA090E8000C82448344AAF10107DA45E2
:1001A00001D100F051F8AFF2090EBAE80F0013F0D8
:1001B000010F18BFFB1A43F0010318473CEC000085
:1001C0005CEC00000A444FF0000C10F8013B13F007
:1001D000070408BF10F8014B1D1108BF10F8015BA0
:1001E000641E05D010F8016B641E01F8016BF9D193
:1001F00013F0080F1EBF10F8014BAD1C0C1B09D1EA
:100200006D1E58BF01F801CBFAD505E014F8016B5B
:1002100001F8016B6D1EF9D59142D6D370470000ED
:100220000023002400250026103A28BF78C1FBD8FF
:10023000520728BF30C148BF0B6070471FB50BF095
:100240005AFF1FBD10B510BD00F0CCF91146FFF7E5
:10025000F5FF09F057FB00F0EAF903B4FFF7F2FFEE
:1002600003BC00F0EDF900002C4B19680868B0E8F9
:10027000F04F80F30988BFF36F8F4FF0000080F3D9
:10028000118870470000000008480068006880F38B
:1002900008884FF0000080F3148862B661B6BFF39F
:1002A0004F8FBFF36F8F00DF00BF00BF08ED00E08E
:1002B000DFF80C00016841F470010160704700BF75
:1002C00088ED00E0EFF30980BFF36F8F134B1A68DE
:1002D0001EF0100F08BF20ED108A20E9F04F1060CB
:1002E00009B44FF0500080F31188BFF34F8FBFF374
:1002F0006F8F0BF0BDFA4FF0000080F3118809BC3E
:1003000019680868B0E8F04F1EF0100F08BFB0EC95
:10031000108A80F30988BFF36F8F7047640C002048
:10032000EFF30580704700000948804709480047FF
:10033000FEE7FEE7FEE7FEE7FEE7FEE7FEE7FEE795
:10034000FEE7FEE704480549054A064B70470000F2
:10035000A967000889010008305B00203061002097
:10036000305D0020305D002053EA020C00F069800F
:100370002DE9F04B4FF00006002B1FBFB3FA83F5B9
:1003800003FA05F424FA05F65E4012BF1643B2FAEA
:1003900082F502FA05F4C5F120051EBF22FA05FC1C
:1003A00044EA0C04203556EA044C4FEA144418BFC2
:1003B000641C4FF000084FF00009904271EB030CF1
:1003C00039D3002919BFB1FA81F701FA07F6B0FA5B
:1003D00080F700FA07F6C7F120071EBF20FA07FCD6
:1003E00046EA0C062037B6FBF4FCA7EB0507103FE6
:1003F00007F01F0BCBF120060CFA0BFB2CFA06F6CC
:1004000044BFB3460026202FA4BF5E464FF0000B2A
:100410005BEA060C08BF4FF0010B19EB0B09ABFBB5
:10042000027C48EB0608C01B06FB02CC0BFB03CC8E
:1004300071EB0C01C1E70B46024641464846BDE858
:10044000F08B13B54FF000004FF00001AFF30080C8
:10045000BDE81C407047032A40F2308010F0030CC6
:1004600000F0158011F8013BBCF1020F624498BF07
:1004700011F801CB00F8013B38BF11F8013BA2F1A4
:10048000040298BF00F801CB38BF00F8013B11F01F
:10049000030300F02580083AC0F0088051F8043BBF
:1004A000083A51F804CBA0E80810F5E7121D5CBF2C
:1004B00051F8043B40F8043BAFF30080D20724BF5F
:1004C00011F8013B11F801CB48BF11F8012B24BFF3
:1004D00000F8013B00F801CB48BF00F8012B704742
:1004E00010B5203AC0F00B80B1E81850203AA0E8CF
:1004F0001850B1E81850A0E81850BFF4F5AF5FEA03
:10050000027C24BFB1E81850A0E8185044BF18C9B5
:1005100018C0BDE810405FEA827C24BF51F8043B5C
:1005200040F8043B08BF7047D20728BF31F8023BB0
:1005300048BF11F8012B28BF20F8023B48BF00F844
:10054000012B70474FF000020429C0F0128010F018
:10055000030C00F01B80CCF1040CBCF1020F18BF9F
:1005600000F8012BA8BF20F8022BA1EB0C0100F032
:100570000DB85FEAC17C24BF00F8012B00F8012B05
:1005800048BF00F8012B70474FF0000200B513463A
:1005900094469646203922BFA0E80C50A0E80C50A3
:1005A000B1F12001BFF4F7AF090728BFA0E80C5054
:1005B00048BF0CC05DF804EB890028BF40F8042B4D
:1005C00008BF704748BF20F8022B11F0804F18BFBA
:1005D00000F8012B7047704770477047004870471C
:1005E000D05A00207546FFF7F9FFAE460500694670
:1005F000534620F00700854618B020B5FFF7A2FE4D
:10060000BDE820404FF000064FF000074FF0000813
:100610004FF0000B21F00701AC46ACE8C009ACE894
:10062000C009ACE8C009ACE8C0098D46704710B5F8
:100630000446AFF300802046BDE81040FFF70DBE32
:1006400001491820ABBEFEE72600020070470000FB
:10065000114890ED050AD0ED040A30EE600ABDEEB7
:10066000C00A10EE100A00B200F52571B1F5A56FB1
:1006700006D9002802DD4FF4257001E000DA0748B2
:1006800000EE100A044800F16000B8EEC00A0068ED
:1006900080ED090A70470000440400206CFDFFFF54
:1006A00010B5054C2046616B884704F13800E16EB7
:1006B000BDE8104008470000A40A002010B50B4C0C
:1006C0002046D4F8CC118847D4F8C81304F5FE703E
:1006D0008847A4F5D0742046D4F89410884704F1D4
:1006E000D000D4F86411BDE810400847600600202F
:1006F00030B50C4605000CD0022C0AD90548A11EC5
:100700000288284602F078FA291901F8020D000A39
:10071000487030BD0000002030B50C4605000AD0FE
:10072000022C08D9601E81B2FF22284602F07AFA14
:10073000291901F8010C30BD2DE9F04107462DEDD6
:10074000088B15460E46B0EE629AF0EE429AB0EE75
:1007500061AAF0EE60AA10EE100A0BF02BFC9FEDE0
:10076000528B53EC182B0BF027FB0BF0F3FA0BEE2C
:10077000100A1AEE900A0BF01DFC53EC182B0BF02C
:100780001BFB0BF0E7FAFDEECA0A0AEE900A484C92
:1007900010EE900AB0EE000A217B00B209F098F842
:1007A000FDEEE90AF0EE408A217B10EE900AB0EEF1
:1007B000000A00B209F08CF8FDEEC90AF0EE409A8A
:1007C000217B10EE900AB0EE000A00B209F080F82A
:1007D000B0EE408AB0EE4B0A07F0F4F89FED359A80
:1007E00040EE098AB0EE6A0A07F0ECF8B0EE40AAD3
:1007F000B0EE4B0A07F0A4F82AEE000A40EE499A40
:10080000B0EE6A0A07F09CF8B0EE40AAB0EE4B0AD0
:1008100007F096F82AEE000A00EE498AB0EE4B0A7D
:1008200007F08EF820EE289AB0EE4B0A07F0CAF8CF
:1008300008EE009AB0EE6A0A87ED009A07F080F899
:1008400020EE299AB0EE6A0A07F0BCF808EE409A4A
:10085000B0EE4B0A86ED009A07F072F820EE088A97
:10086000B0EE6A0A07F06CF828EE008AB0EE4B0A88
:1008700007F0A8F860EE288AB0EE6A0A07F060F880
:1008800008EEC08AB0EE6A0A07F09CF860EE298A8A
:10089000B0EE4B0A07F054F808EE808A85ED008A26
:1008A000BDEC088BBDE8F081514CDE0033DF913F99
:1008B000781000200AE81C412DE9F04F88462DED04
:1008C000068B81B012AC824694E8830099461546A7
:1008D000DDE91632DDF844B0159ED0ED000AFE4C7D
:1008E000C4ED110A91ED000A84ED120A97ED000A99
:1008F00084ED130A96ED000AF84E84ED140A93ED88
:10090000000A84ED150A92ED000A84ED160A317B87
:100910009FEDF38AFDEEE00AB0EE480A10EE900A71
:1009200000B208F0C1FF84ED110AD4ED120A317B48
:10093000B0EE480AFDEEE00A10EE900A00B208F0B0
:10094000B3FF84ED120AD4ED130A317BB0EE480AEE
:10095000FDEEE00A10EE900A00B208F0A5FF10EEDE
:10096000106A606C0BF026FB9FEDDE8B53EC182BAE
:100970000BF022FA0BF0EEF960640090A06C0BF023
:1009800019FB53EC182B0BF017FA0BF0E3F90746A1
:10099000A06430460BF00EFB53EC182B0BF00CFA56
:1009A0000BF0D8F9E06400996067C4E91B17D4ED37
:1009B000140A94ED150A94ED161AB0EE008A20EE92
:1009C000800A20EE010AB5EEC00AF1EE10FA7DD0E1
:1009D000FDEEE00AC14EB0EE000A10EE900A317B47
:1009E00000B208F075FF84ED140AD4ED150A317BCE
:1009F000B0EE000AFDEEE00A10EE900A00B208F038
:100A000067FF84ED150AD4ED160A317BB0EE000ABB
:100A1000FDEEE00A10EE900A00B208F059FF84EDF6
:100A2000160AD4ED140A20EEA01AD4ED150A00EE31
:100A3000A01A00EE001AB0EE410A08F0EBFD84EDBA
:100A40000A0AD4ED140A20EE803A84ED143AD4ED6B
:100A5000150A60EE802AC4ED152AD4ED160A20EEA0
:100A6000804A84ED164A94ED071AD4ED090A94EDF4
:100A7000062A94ED080A61EE201A62EE013A42EE6F
:100A8000401A22EE022A40EE203A01EE412A61EE9F
:100A9000881A63EE883AC4ED0B1A24EE211A00EE90
:100AA000402AC4ED0C3A00EEA02A84ED0D2A62EE35
:100AB000820A03EE421A23EE232A44EE630A02EE70
:100AC000E12AC4ED0E0A84ED0F1A00E015E084ED72
:100AD000102AD4ED111A94ED000A40EE201AC4ED4C
:100AE000111AD4ED120A40EE010AC4ED120AD4ED37
:100AF000130A40EE020AC4ED130A94ED060A84EDCF
:100B0000170AD4ED071AB0EE404AC4ED181A94ED56
:100B1000081A84ED191AD4ED090AC4ED1A0AD4EDA5
:100B2000113A94ED123AD4ED132A61EEE34A94EDB2
:100B3000012A60EE035A41EE434A41EEE25A40EE8A
:100B4000E24A40EEA35A04EE824AF0EE614A84ED96
:100B5000064AB0EE445A20EE234A20EE220A01EE65
:100B6000224A01EE830A00EEC34A01EE630A44EE14
:100B7000024A40EE020A25EE050AB0EE414A05EEB1
:100B8000824A04EEA40AC4ED074A84ED084AC4ED83
:100B9000090A04EE040A00EEA00A08F03BFD84ED09
:100BA0000A0AD4ED060A404620EE802A84ED062A81
:100BB000D4ED070A60EE801AC4ED071AD4ED080AD6
:100BC00020EE801A84ED081AD4ED090A20EE800A7E
:100BD00062EE020A84ED090A41EEE10A41EE410AA1
:100BE00021EE081A40EE000A21EE000A22EE081A51
:100BF00001EE210A06F09CFD98ED000A9FED3B9A5C
:100C0000F7EE008A344E20EE090ADFED399A80367D
:100C100088ED000A94ED070AD4ED090A94ED081A4C
:100C200020EE080A06F1200020EE200AD4ED060A84
:100C300060EE880A00EEC10AF0EE680A86ED060A48
:100C400040EE400AF5EEC00AF1EE10FA04DBB1EE18
:100C5000E01A80ED001A01E0C0ED009A5046D6ED92
:100C6000080A06F065FD9AED000A9FED22AA2846C3
:100C700020EE0A0A8AED000A94ED060A94ED072A8E
:100C8000D4ED081A60EE000A94ED091A42EE020A49
:100C900041EEE10A62EE211A40EE011A41EE410AEC
:100CA00021EE880A06F044FD95ED000A20EE090ABF
:100CB00085ED000A94ED020A86ED020AD4ED031ACE
:100CC000C6ED031A94ED041A86ED041AD4ED050A54
:100CD000C6ED050A10E00000400300207810002057
:100CE0000000FA44514CDE0033DF913FDF2E6542B5
:100CF00000000000DF2E65C2D4ED1B3A94ED1C3AD3
:100D0000D4ED1D2A61EEE34A94ED012AB0EE404A8B
:100D100060EE035A41EE434A41EEE25A40EEE24AA7
:100D200040EEA35A04EE824AF0EE614A84ED1E4A78
:100D3000B0EE445A20EE234A20EE220A01EE224A67
:100D400001EE830A00EEC34A01EE630A44EE024A52
:100D500040EE020A25EE050AB0EE414A05EE824A4F
:100D600004EEA40AC4ED1F4A86ED004AC6ED010A4E
:100D700004EE040A00EEA00A08F04CFC84ED0A0A16
:100D8000D4ED1E0A20EE802A84ED1E2AD4ED1F0A1F
:100D900060EE801AC4ED1F1AD6ED000A20EE801A0C
:100DA00086ED001AD6ED010A20EE800A62EE020AF4
:100DB00086ED010A109841EEE10A41EE410A21EE6A
:100DC000081A40EE000A21EE000A22EE081A01EE8F
:100DD000210A06F0ADFC109890ED000A20EE090AF9
:100DE00080ED000A94ED1F0AD6ED010A96ED001A77
:100DF00020EE080A244820EE200AD4ED1E0A60EEF8
:100E0000880A00EEC10A86ED070A40EE408AF5EE38
:100E1000C08AF1EE10FA04DBF1EEE80AC0ED000A38
:100E200001E0C0ED009A4846D6ED090A06F080FCC4
:100E300099ED000A584620EE0A0A89ED000A94ED61
:100E40001E0A94ED1F2AD6ED001A60EE000A96EDF8
:100E5000011A42EE020A41EEE10A62EE211A40EE68
:100E6000011A41EE410A21EE880A06F061FC9BED71
:100E7000000A002020EE090A8BED000A01B0BDEC4B
:100E8000068BBDE8F08F0000E40300202DE9FF474A
:100E90001546DDE90C9A0E4607461C460D226946AA
:100EA0000C2004F07FFCBDF80180BDF803C0BDF844
:100EB0000530BDF80720BDF80910BDF80B00A4F8F7
:100EC0000080A9F800C0AAF800303A80318028805C
:100ED000BDE8FF87FEE70000014802F02CB80000E3
:100EE000F41700201CB50A88120A8DF800200A7831
:100EF0008DF801204A88120A8DF802208A788DF830
:100F000003208A88120A8DF804200A798DF80520BA
:100F1000CA88120A8DF8062089798DF807100146D3
:100F20006A46024800F09EF81CBD0000F41700203D
:100F3000084AA0F58070413806D0012808D105483C
:100F4000D2F86C21D0301047D2F89C200148FAE743
:100F500070470000C0040020014801F0ECBF000011
:100F60001C1800201CB50A88120A8DF800200A7887
:100F70008DF801204A88120A8DF802208A788DF8AF
:100F800003208A88120A8DF804200A798DF805203A
:100F9000CA88120A8DF8062089798DF80710014653
:100FA0006A46024800F05EF81CBD00001C180020D4
:100FB00070B530281ED0114CA0F500704FF40055CC
:100FC00009380ED0012818D104F5FE70D4F8D423C6
:100FD00006469047D4F8F02329463046BDE87040D5
:100FE0001047D4F8D8210548904729460348D4F83B
:100FF000F421F3E7302000F051F870BD60060020C6
:1010000010B58AB0154802F094F8154802F091F82E
:1010100000200121CDE90601089104900090019083
:10102000029003900E240590694609940B4801F044
:1010300087FE0A4802F0B5F90221084801F000FED7
:1010400069460748059401F07BFE054802F0A9F9BE
:101050000221034801F0F4FD0AB010BDF41700208E
:101060001C18002010B50B4C036888B0A34202D0B6
:10107000094CA3420BD10091002102910391082158
:10108000049106AB694601F0EDFD002800D0012077
:1010900008B010BD006400400068004070B50B004F
:1010A00023D0302821D1124D18886E4240BA00B2A8
:1010B000DFED0E0AB3EE0E0A2A46314608F0C0FAFA
:1010C0000C4CFBEE040A2A4684ED040A5888B3EE61
:1010D000040A40BA00B2314608F0B2FA84ED050ABB
:1010E000988840BA20830020A08370BD00000000D3
:1010F0000083FFFF080C0020002859D02D498842AA
:1011000003D001F1240290422BD190ED000ADFEDD3
:101110002A0A2A4B20EE200A10EE102A80ED070A38
:101120009A4202DD9FED260A06E010EE102A254BBA
:101130009A4201D99FED240A884280ED070ABDEE4C
:10114000C00A224A10EE100A05D1404201B2D2F87C
:10115000B8201E4804E001B21C48D2F88821D030E3
:10116000104714494831884203D001F124029042CB
:101170001ED190ED000ADFED160A164B20EE200A74
:1011800010EE102A80ED080A9A4202DD9FED120A45
:1011900006E010EE102A114B9A4201D99FED100A79
:1011A000884280ED080A03D1B1EE400A80ED080ABA
:1011B00070470000080100200000C8430000F04410
:1011C0000000F0440000F0C40000F0C4C00400209F
:1011D000FF4FC3460050C3460050C3460050C3C62D
:1011E0000050C3C62DE9F04104002DED068B7DD0E3
:1011F000B448B34AB0F86A0000EE100AF8EE409A1C
:101200009FEDB12A02F1E80702F58673F0EE421A6B
:10121000BC42B0EE618AB0EE619AF0EE618A01D014
:101220009C4201D1A94801E0A848203800285DD09F
:10123000A34D0021483D01E001290AD802EB8106B7
:1012400096ED000A00EB8106D6ED000A40EE201A6A
:1012500044E08E1E012E26D8BC4208D195ED1E0A10
:10126000D0ED020A60EE200A95ED1F0A09E09C42CB
:101270000ED195ED200AD0ED020A60EE200A95ED20
:10128000210A90ED031A40EE010AC4ED050A25E09B
:1012900002EB810696ED000A00EB8106D6ED000A0E
:1012A00000EE209A1AE00E1F012E0AD802EB8106EA
:1012B00096ED000A00EB8106D6ED000A00EE208ACA
:1012C0000CE08E1F012E09D802EB810696ED000A74
:1012D00000EB8106D6ED000A40EE208A491C082961
:1012E000AADB774EA036B44205D000E0BFE006F19D
:1012F000240084427DD17548643090ED041AB5EE27
:10130000C01AF1EE10FA02DDB0EE410A01E0B1EED2
:10131000410A9FED6F2AD0ED020A20EE023AF5EE67
:10132000C00AF1EE10FA02DDB0EE600A01E0B1EEA3
:10133000600ADFED682AB6EE00AA00EE223A21EE3E
:101340008A0AB4EEC03AF1EE10FA12D2B5EEC01A23
:10135000F1EE10FA01DCB1EE411AF5EEC00A21EE11
:10136000020AF1EE10FA01DCF1EE600A00EEA20AC8
:1013700030E0F5EEC00AF1EE10FA02DDF0EE601A90
:1013800001E0F1EE601A9FED543AB5EEC01A61EE3D
:10139000832AF1EE10FA02DDF0EE411A01E0F1EEDF
:1013A000411A41EEC22AF4EEC02AF1EE10FA11DD24
:1013B000F5EEC00AF1EE10FA01DCF1EE600AB5EECE
:1013C000C01A20EE830AF1EE10FA01DCB1EE411AE8
:1013D00001EE420A04F10C0084ED030AB0EE690A42
:1013E00001F068F829EE0A0A84ED050A28EE0A0AD7
:1013F00000E040E084ED040AB44202D128EE8A0AFB
:1014000003E0BEEE000A28EE800A04F1180084ED25
:10141000060AB0EE690A01F04DF894ED030AD4ED26
:10142000050A94ED061A70EE200A94ED040A70EE97
:10143000800A70EE810AC4ED000A95F8D3010128F4
:1014400002D0B0EE600A01E084ED000A10EE100A4E
:101450002249884202DD9FED220A06E010EE100AC2
:101460002049884201D99FED200A84ED000ABDEC95
:10147000068BBDE8F081BC4201D09C42F7D1C4ED9F
:10148000031A84ED048A84ED062A94ED050A31EEF0
:10149000800A30EE080A30EE020A10EE100A84EDDF
:1014A000000AB0F17E5F02DDB7EE000ADDE710EE64
:1014B000100A10F1814FD8D9BFEE000AD5E700001D
:1014C00068000020140B002000000000B80100207C
:1014D0005077D63DEC51383EEC5138BE9A99994040
:1014E0009A9999409A9999C09A9999C0064807493A
:1014F00090F8202008881AB120F02000088070475A
:1015000040F02000FAE70000080C0020E202002072
:101510000A4900229FED0A0AC868828589688A857F
:10152000C0E90C22C1E90C2280ED0E0A034881EDCE
:101530000E0A1C3080ED000A7047000004000020F5
:10154000000000002DE9F0414B484C4D0026B0F959
:101550000600A880B5F9021005F11C04814225D0CF
:1015600094ED010AB5EEC00AF1EE10FA01DCB1EE1D
:10157000400A10EE101AB1F17C5F17DDC0B90120EE
:1015800000F0ACF894ED010AB5EEC00AF1EE10FAE5
:1015900001DD012008E0B5EEC00AF1EE10FA02D23A
:1015A0004FF0FF3000E00020C4F8BC01A88818B15B
:1015B0002E70002000F092F8314FF8780C2803D1FB
:1015C000002000F08BF82E7078782E4FDFED2E0A79
:1015D000B1EE001A012803D02878012832D020E08B
:1015E0000120287094ED040AB5EEC00AF1EE10FA5D
:1015F00001DCB1EE400A10EE100A2449884221DADB
:1016000094ED010AB5EEC00AF1EE10FA01DCB1EE7C
:10161000400A10EE100A1E49884213DAFFF778FFDD
:101620002E70C4ED320AC4ED300A97ED020A002094
:1016300020EE010A84ED680A00F050F8A88868805E
:10164000BDE8F08197ED020A20EE010A84ED680AF8
:10165000C4ED6A0AC4ED670AC4ED660A94ED6F0A28
:10166000DFED0C0AB8EEC00A20EE200A84ED320A43
:1016700084ED300AE2E7000074040020040000203A
:10168000C40200203C020020000000000000404096
:101690000AD7A33CEC51383E10B50E4CE07A012835
:1016A0000DD00D49A1F1200004F01EF8E07B0128C7
:1016B0000AD000F075FEBDE8104000F089B8064978
:1016C0002031A1F16000EFE700F05AFEBDE81040C4
:1016D00000F0CCBEC40200203C020020224990B39E
:1016E0000246012830D0022830D003282ED004280A
:1016F0002CD00B282CD00C282AD005282AD006283C
:1017000028D0072826D0092824D00A2822D0082843
:1017100020D00D2820D00E281ED00F281ED0102833
:101720001CD011281CD012281AD013281AD0142823
:1017300018D0152816D0162814D0172801D018282C
:1017400000D18A727047FFE74870FBE70A70F9E73B
:10175000CA70F7E78A70F5E70A71F3E74A71F1E7B3
:101760008A71EFE7CA71EDE7C402002010B5164890
:10177000164C90ED090A84ED360A90ED170A84EDB7
:10178000380A94ED040AB5EEC00AF1EE10FA01DC55
:10179000B1EE400A06F0D4F8D4ED360A20EE200A65
:1017A00084ED370A94ED040AB5EEC00AF1EE10FAA2
:1017B00001DCB1EE400A06F0C3F8D4ED380A20EEA1
:1017C000200A84ED390A10BDA40A00202000002060
:1017D00010B520212DED028B0F48FEF7D5FE0F48E6
:1017E00000F0DAF8FFF7C2FFFFF792FE0C48DFEDDA
:1017F0000D0A4821406890ED060A084820EE208A2C
:101800009030FEF7C1FE054880ED2A8ABDEC028BC0
:10181000BDE8104000F090B8D80100202000002062
:101820001404002035FA8E3C9FED392A374810B554
:10183000C0EE021A90F82000364C012804D09FED2B
:10184000360A21EE800A03E0344821EE810AC07A8C
:1018500084ED250AD4ED181AB0EE402A94ED131A3F
:1018600094ED2A0AF5EEC01AF1EE10FA01DCF1EE61
:10187000611A11EE900A2A4988423FDA2548DFEDC5
:101880002A3A9FED2A3AD0ED131AB5EEC02A254820
:10189000F1EE611AF1EE10FA11D1B5EEC01AF1EEC7
:1018A00010FA02DDF0EE412A01E0F0EE612A12EEBC
:1018B000901A814203DAC0EE832A02EEA30AB5EE43
:1018C000C02AF1EE10FA0ED1B5EEC01AF1EE10FA00
:1018D00001DCB0EE611A11EE101A814203DD80EED8
:1018E000831A01EE230AB5EEC02AF1EE10FA05D0F4
:1018F00080EE831ADFED0E0A01EE200ADFED0D0AFD
:1019000001F05EF984ED2A0A10BD0000D40B00201E
:1019100000002544200000206666663FC4020020C7
:10192000C2B8B23E9A99193E0AD7A33C000025C41A
:101930000AD7233CDA0F49402DE9F04700282DED66
:10194000028B23D04FF010089FED128A074600F15A
:10195000900600F148050024A8F1010997ED000A5E
:1019600096ED001A062C30EE410A85ED000A05D1ED
:10197000F0EE480A01F024F985ED000A4C4502D04A
:101980002D1D361D3F1D641C4445E7DBBDEC028B5D
:10199000BDE8F087DA0F494010B503007DD0714CE7
:1019A000A06890ED0E0ADFED700A20EE200A83EDAC
:1019B000080AE16891ED0E0ADFED6C0A20EE200ABC
:1019C00083ED0A0AB0F9120000EE100AB8EEC01A50
:1019D0009FED670AC1EE000A9FED661A60EE810A6C
:1019E000C3ED090AB1F9120000EE900AF8EEE00A20
:1019F00080EE801A9FED600A002221EE000A83ED3E
:101A00000B0A20698089A3F8400061698989A3F8DD
:101A1000421041F22B11203304F0B2FB83ED040A93
:101A2000588C012240F6D85104F0AAFB83ED060A37
:101A30002069B0F9020000EE100AF8EEC00A9FED2E
:101A40004F0A80EE801ADFED4E0A61EE200AC3EDE8
:101A5000050A6069B0F9020000EE900AB8EEE01ADB
:101A6000C1EE000A9FED470A474841F2F63220EEE8
:101A7000800A83ED070AC189203B184600F00AFD61
:101A800093ED080AD3ED0A0A70EE200AB6EE000ABA
:101A900060EE800AC3ED000A00E05CE0D3ED090AC5
:101AA00093ED0B1A39493B4A70EE810A60EE800AC9
:101AB000C3ED010AD3ED0C0A93ED0E1A70EE810A04
:101AC00060EE800AC3ED020AD3ED0D0A93ED0F1A02
:101AD00070EE810A20EE800ADFED2D0A83ED030A05
:101AE000486890ED070A20EE200A83ED040A486852
:101AF00090ED0D0A20EE200A83ED050A9078062865
:101B00002AD0052803D0082826D00A2802D1107927
:101B10000E2821D0B3F84600DFED1F1A404200EE38
:101B2000100A1E4AB8EEC01A81EE210A20EE200AE1
:101B300010EE100A83ED060A904205D39FED181AA5
:101B400030EE010A83ED060A486890ED0C0A20EE9B
:101B5000200A83ED070A10BD486890ED060A20EEC2
:101B6000200AEFE7040000200AD7A33D0AD7A3BD4F
:101B70000000B443FCAD003FFCAD00BF000070426C
:101B80004652543E465254BE7C02002014040020AB
:101B900035FA8E3CC4020020780BB641DA0F49C0FA
:101BA000DA0FC9402DE9F05F04002DED0A8B70D0EB
:101BB0000026B7EE08CAFD48DFF8F493DFF8F48397
:101BC00090F82000F5EE00AA09F1200AF0EE088A4C
:101BD000A9F5FE75012804D1F74890F820000128E6
:101BE00032D09FEDF69A99ED060A20EE280A20EEF3
:101BF0002A0A85ED640A9AED010A20EE0C0A85EDA9
:101C0000670A98F80200062829D09FEDEDAA9FEDFB
:101C1000ED8A09282AD04FF0010BB0EE00BAF1EEA0
:101C2000009ADFEDE9BAE34900270528CA7837D0E2
:101C3000DFEDE60A097BDFEDE6CA0A286FD0072848
:101C40006ED008286DD075E398F80B0001260128A6
:101C500002D0B0EE4C9AD4E7B0EE049AD1E798F8EF
:101C600004000E287DD194ED060ADDE2D948B0F8D3
:101C70006A0028305028E6D91320FFF72FFD0520F1
:101C8000FFF72CFD98F805000F2803D0102804D08A
:101C900050E35CE384ED2A8A4CE384ED2AAA49E30D
:101CA0000C2A19D085F8C07185F8C17198F80A001E
:101CB0004FF0FF3617283ED085F8D57185F8D671DC
:101CC00085F8D771C448B0F90600002803D098F809
:101CD0000A1018297ED0FAE0C048406890ED070A43
:101CE000B5EEC00AF1EE10FA01DCB1EE400A10EEDA
:101CF000100ABB49884215DC95F8C001401CC0B2EF
:101D000085F8C0010A280FD385F8C07185F8C17124
:101D10000720FFF7E3FC1820FFF7E0FCC6E71AE115
:101D2000FAE1FFE285F8C07199ED040A20EE280A75
:101D300085ED620ABAE794ED160AB5EEC00AF1EE37
:101D400010FA01DCB1EE400A10EE100AA4498842F4
:101D500015DC94ED010AB5EEC00AF1EE10FA03DCD1
:101D600000E0D2E1B1EE400A10EE100A9D4988422F
:101D700005DC0A20FFF7B2FC85F8D5B1A2E795F89B
:101D8000D00100289ED195ED010AB5EEC00AF1EE12
:101D900010FA01DD012007E0B5EEC00AF1EE10FAFD
:101DA00001D2304600E00020404200EE100AB8EEBA
:101DB000C00A20EE2B0A84ED320A84ED300A85ED4C
:101DC0006A8A85ED678A85ED668A9AED020A20EEB9
:101DD000280A00E002E085ED680A73E794ED180A2E
:101DE000B5EEC00AF1EE10FA01DCB1EE400A10EED9
:101DF000101A7D4A914266DB94ED010AB5EEC00AE5
:101E0000F1EE10FA01DCB1EE400A69EE280A60EE4C
:101E1000AA0AB4EEE00AF1EE10FA54DB95F8D011FC
:101E200049BB95ED010AB5EEC00AF1EE10FA01DDED
:101E3000012107E0B5EEC00AF1EE10FA01D23146F9
:101E400000E00021494200EE101AB8EEC00A20EE70
:101E50002B0A84ED320A84ED300A85ED608A85ED27
:101E60006A8A85ED678A85ED668A9AED020A20EE18
:101E70000B0A85ED680A94ED160AB5EEC00AF1EE7C
:101E800010FA02DDF0EE400A01E0F1EE400A10EE39
:101E9000901A914204DB99ED040A20EE280A0FE023
:101EA000B5EEC00AF1EE10FA01DCB1EE400A10EE18
:101EB000101A4E4A91420ADB99ED040A20EE290AD3
:101EC00085ED620A03E084ED328A84ED308A98F869
:101ED00004100E293FF4C7AE98F81110012998F8A4
:101EE000051004D00F291FD0102928D022E20F2975
:101EF00002D010290BD01DE200EE100AF0EE480AC5
:101F0000C4ED2A0AB8EEC01A81EE280A14E0404255
:101F100000EE100A84ED2AAAF8EEC00A80EEA80AA4
:101F200014E0FFF781FC05E200EE100AF0EE480A2B
:101F3000C4ED2A0AB8EEC00AB0EE491AF1E74042F1
:101F400000EE100A84ED2AAAB8EEC00AB0EE491AD3
:101F5000F0EE480AE5E7274898F805209FED241A97
:101F600090F8D701DFED248A0F2A02D0102A05D07D
:101F700005E020B90F2085F8D70142E020B10F28F5
:101F80003FD0102803D059E0102085F8D70194EDF8
:101F90002A0A1A4A10EE100A904203D1B1EE400A02
:101FA00084ED2A0A66B330EE010A3EE0D40B00202D
:101FB0001C020020C4020020080C00206666663F58
:101FC000DA0F494000000000EC51383E0AD7A33B2D
:101FD000DA0FC93F140B0020740400201404002001
:101FE0000000A0409A99193F5077D63D5077563D52
:101FF0006F12033C20000020DA0FC9BFDA0F4940FE
:1020000011E094ED2A0A16B130EE010A01E030EE3B
:10201000200AD14A10EE100A84ED2A0A90420DDD02
:10202000C4ED2ACA0AE030EE200ACC4A10EE100AAB
:1020300084ED2A0A904201D2C4ED2A8A012906D1F0
:1020400095F8D601012802D10820FFF747FB98F840
:102050000600112802D0122809D019E0B4F8460071
:1020600040F26C71884213D340F6660107E0B4F881
:10207000460041F2707188420AD341F66A018842F3
:1020800006D884ED328A84ED308A85F8D6B101E035
:10209000FFF73EFA98F804000E2807D01EB398F810
:1020A0000600122807D011280CD01CE094ED060A77
:1020B00084ED2A0A17E0AA48C4ED2ACAB0F9040040
:1020C000404204E0A648C4ED2A8AB0F90400B0EE0C
:1020D000491A00EE100AF8EEC00A80EE8C0AF0EE03
:1020E000480AFFF7A1FB98F80A00182810D195EDCF
:1020F000180AB5EEC00AF1EE10FA01DCB1EE400AA2
:1021000010EE100A9749884203DC0520FFF7E6FA33
:1021100010E1FFF7FDF90DE10C2A02D00B2A6FD078
:1021200008E195F8D00168B99FED8F0AB1EE041A65
:1021300084ED300AC4ED32BA9AED020A20EE010AAB
:1021400085ED680A85ED678A85ED668A85ED618A89
:1021500085ED608AFFF7DCF995F8C301F8B12EB17F
:1021600094ED060A30EE2C0A84ED2A0A94ED040A56
:10217000B5EEC00AF1EE10FA01DCB1EE400A10EE45
:10218000100A7A4988423CDC85F8CA7195F8C80182
:102190009FED770A012830D002282ED03EE016B3FA
:1021A00095ED710A6C4910EE100A884220DA99ED1B
:1021B000041A30EE200A21EE0B1A85ED621A85ED25
:1021C000710AD4ED060A30EE800A84ED2A0A95F8E9
:1021D000C80140B994ED040AB5EEC00AF1EE10FA58
:1021E00002DD85F8C8B119E0022085F8C80115E0C4
:1021F00085F8C3B185ED718A10E084ED280A0DE001
:1022000015E095F8CA01401CC0B285F8CA016428DF
:1022100004D30520FFF762FA85F8CA7194ED2A0A03
:10222000F0EE4A0A00F0CCFC84ED2A0A82E084ED4C
:10223000328A84ED308A84ED288A85F8C37185F866
:10224000C87195ED060AB5EEC00AF1EE10FA02DD8E
:10225000F0EE400A01E0F1EE400A10EE900A454926
:10226000884202DC84ED2A8A0DE0B5EEC00AF1EE68
:1022700010FA01DCB1EE400A10EE100A3E49884225
:1022800001DB84ED2AAA94ED180AB5EEC00AF1EE3E
:1022900010FA01DCB1EE400A10EE100A374EB042DF
:1022A00017DC94ED160AB5EEC00AF1EE10FA01DC67
:1022B000B1EE400A10EE100AB0420ADC95F8C901EE
:1022C000401CC0B285F8C9010A2833D385F8C9710A
:1022D0001BE785F8C971FFF71BF994ED160AB5EEF7
:1022E000C00AF1EE10FA01DCB1EE400A10EE100A5D
:1022F00099ED040AB04208DD20EE290A85ED620A54
:1023000099ED060A20EE2A0A09E085ED620A99EDA8
:10231000060AF6EE000A20EE280A20EE200A85EDD5
:10232000640A07E094ED060A84ED2A0A11B9052033
:1023300088F8020094ED250AB5EEC00AF1EE10FA15
:1023400005D0BDEC0A8BBDE8F05FFFF7E1B8BDEC4E
:102350000A8BBDE8F09F0000DA0FC93FDA0FC9BF52
:10236000740400200000A040EC5138BE35FA0E3E47
:102370007CD9A0BD5077563DFDB5454035FA0E3DA0
:1023800010B50648FFF708FB0448FFF70BFC0348AD
:10239000FFF7D2FABDE81040FFF7E8B920000020AF
:1023A0007CB524211648FEF7EFF815482421243087
:1023B000FEF7EAF8124824214830FEF7E5F8104805
:1023C00024216C30FEF7E0F80E4C0025A12124F802
:1023D000585F0C486560A26C9047A4F8D050C4F8D0
:1023E000D4500848A121D4F81821D030904706488D
:1023F0000095019580696946FEF7B4FD7CBD00003B
:1024000008010020C00400206006002070B51648B6
:10241000044603F015FD2046FEF7E4FE204603F0D7
:10242000FBFC11482430054603F00AFD2846FEF760
:10243000D9FE284603F0F0FC2046FEF75DFE284654
:10244000FEF75AFE084848300446FEF7CBFE064821
:102450006C300546FEF7C6FE2046FEF74DFE2846C8
:10246000BDE87040FEF748BE0801002010B5FFF738
:1024700069F8FFF7CBFF0648C079132805D004F0B0
:102480001DFBBDE8104004F0BDBB04F0FBFAF8E70B
:10249000C4020020A0F84410C2F50052114489B2D1
:1024A000A0F84610B1F5005F03D3A1F50051A0F8E4
:1024B00046107047002818D010EE101A0B4A9FEDF6
:1024C0000C1A914202DDF7EE000A08E0C0EE010AA4
:1024D00010EE101A074A914201DA60EEA00A90ED60
:1024E000000A20EE200A80ED000A704700007042CA
:1024F000000070420000F0410648074990F8322081
:1025000008881AB120F480700880704740F4807009
:10251000FAE700007C020020E20200208108CA07DE
:1025200010B5234901D00C2200E00B22CA70C2086A
:10253000D20701D0102200E00F224A710209D2070F
:1025400001D00E2200E00D220A714209D4074FF09B
:1025500001034FF0000201D00B7200E00A728409FF
:10256000E40701D04B7200E04A72C409E40701D0CD
:10257000172400E018248C72040AE40701D0CB72FF
:1025800000E0CA72440AE40701D00B7300E00A734A
:10259000820AD20701D01A2200E01922C00A4A7327
:1025A000C00701D0122000E01120887110BD00008A
:1025B000C4020020034900F00102C0F34000CA73C6
:1025C00048747047C4020020054810B5406881680F
:1025D000884702F0F7FFBDE8104003F075BE000029
:1025E000340C0020014800F069BF0000F81A0020F8
:1025F000014800F063BF0000D81C0020014800F033
:102600005DBF0000381A0020014800F057BF0000ED
:10261000381D0020014800F051BF0000981A00202A
:10262000014800F04BBF0000781C0020014800F07A
:1026300045BF0000581B0020014800F03FBF0000CC
:10264000B81B0020014800F039BF0000181C002012
:102650002DE9F04F85680024099E802D18D0894D02
:10266000C563894D456490F83450012D15D001257E
:1026700080F8345090F83550012D10D0002180F8AA
:1026800034100224002180F834102046BDE8F08F79
:102690004FF4807141650120F8E70220F6E702253A
:1026A00080F835500025456505682F6847F4802778
:1026B0002F6005682B6103685E608368402B0368A8
:1026C0002AD099600168CA60714D704E704FDFF872
:1026D000BC81DFF8B891DFF8B8A1DFF8B4B1EA1433
:1026E000DFF8A8E10168183630379302A9F14809EC
:1026F0000AF1600A0BF1180BAEF1300E4FF0006CCE
:1027000041452DD9A94205D0494503D0514501D0B5
:10271000B14205D1202220E09A600268D160D3E75F
:1027200059451AD0714518D0594D7835A94214D061
:10273000564D3035A94210D0B9420BD0534A183A01
:10274000914207D0524A9032914203D04F4A4832C8
:10275000914201D11A4600E062464C494C392EE0C4
:10276000DFF82C8108F1A80841452AD9A94205D0F3
:10277000494503D0514501D0B14201D120221CE08E
:1027800059451AD0714518D0414D7835A94214D019
:102790003E4D3035A94210D0B9420BD03B4A183AD1
:1027A000914207D03A4A9032914203D0374A483298
:1027B000914201D11A4600E06246344950390A601C
:1027C0005AE0DFF8CC8008F1480841452AD9A942EF
:1027D00005D0494503D0514501D0B14201D1202255
:1027E0001CE059451AD0714518D0294D7835A942B9
:1027F00014D0264D3035A94210D0B9420BD0234A0F
:10280000183A914207D0224A9032914203D01F4A8F
:102810004832914201D11A4600E062461C49103903
:10282000CA6029E0A94205D0494503D0514501D0ED
:10283000B14201D120221CE059451AD0714518D06F
:10284000134D7835A94214D0104D3035A94210D01F
:10285000B9420BD00D4A183A914207D00C4A903237
:10286000914203D0094A4832914201D11A4600E010
:102870006246074910398A6001680A6842F001021D
:102880000A60FFE69D860008B5860008586402408D
:102890001060024001681823CAB2103AB2FBF3F28A
:1028A000054B6FF30901032A9B5CC36500D9091D21
:1028B000816508467047000028E5000810B501460C
:1028C00000208B698A6A4FF0C07453B1B3F5005F82
:1028D00015D072B1012A0CD0022A0AD0032A09D1DC
:1028E00004E01AB1012A06D0022A03D1C96AC9013B
:1028F00000D5012010BDC96AA142FAD010BD002A3E
:10290000F7D0012AF2D0022AF3D0032AF3D010BD67
:1029100030B50468256825F4802525600468636067
:102920008368402B036803D099600068C26030BDA3
:102930009A600068C16030BD70B590F834500024D2
:10294000012D0CD0012580F8345090F83560002519
:10295000012E06D080F834500224204670BD02209B
:1029600070BD022680F83560456505682E6826F43E
:1029700080262E6005686B608368402B036808D052
:1029800099600168CA600068016841F00101016056
:10299000E3E79A600268D160F5E7000010B503F044
:1029A000E1FC0D4C2046A16988470A2000F0F8FEA2
:1029B00004F076FD04F0A4FD04F0CEFD04F004FE66
:1029C00004F02CFE606890F8400008B103F000FFAE
:1029D000BDE81040FEF714BB1404002001680A682B
:1029E000D20604D5C968C90601D508F07DBD704777
:1029F00070EE601AF5EEC01AF1EE10FA01DC70EE1E
:102A0000C01AF4EEC11AF1EE10FA01D2B0EE600A6B
:102A100070477047F0B5404991F847000A2845D201
:102A20000122A1F89C200222A1F89E200322A1F8F5
:102A3000A0200422A1F8A2200522A1F8A4200622A9
:102A4000A1F8A6200722A1F8A82040F20116721CC6
:102A5000A1F8AA60551CA1F8AC20931CA1F8AE50B7
:102A6000D71CA1F8B030141DA1F8B270A1F8B44081
:102A700001280CD002280DD003280ED004280FD036
:102A8000052810D0062801D1A1F8B640F0BDA1F864
:102A9000B660F0BDA1F8B620F0BDA1F8B650F0BD0B
:102AA000A1F8B630F0BDA1F8B670F0BD6522A1F86E
:102AB0009C206622A1F89E206722A1F8A02068220F
:102AC000A1F8A2206922A1F8A4206A22A1F8A620D8
:102AD0006B22A1F8A82040F265135A1CA1F8AA3075
:102AE000541CA1F8AC20951CA1F8AE40D61CA1F84E
:102AF000B050171DA1F8B260A1F8B4706528CFD00E
:102B00006628C7D06728BFD06828C6D06928BED03D
:102B10006A28C8D0F0BD0000140B00202DE9F04F4A
:102B20000028DDE90C76DDE9108ADDE909B9DDF878
:102B300038E0DDF82CC03FD000293DD000240D5DE9
:102B40000555641CE4B2032CF9D310F8031F62F39B
:102B5000020163F3C501017002886BF389120280E0
:102B6000427869F385024270B0F801106CF38E115F
:102B7000A0F80110418867F3CF114180818866F386
:102B800009018180B0F805206EF38C02A0F80520C1
:102B9000C2880F9961F34F12C280018968F309015D
:102BA0000181B0F809206AF38C02A0F8092042895B
:102BB000129961F34F124281BDE8F08F72B6FEE7C1
:102BC000B5EEC00AF1EE10FA02DDB0EE401A01E0F7
:102BD000B1EE401AB4EEE01AF1EE10FA08DDB5EEEF
:102BE000C00AB0EE001AF1EE10FA02DD00EEC10AE2
:102BF000704700EE810A704710B558B1084C491E65
:102C00000BD310F8013B5340DBB234F8133083EAA6
:102C10001222F4E74FF6FF7010BD104610BD000001
:102C20000AC2000810B5054C03E010F8013B534000
:102C3000E25C491E89B2F8D2104610BD0AC10008F4
:102C400090F82020012A07D0022A05D0416A41F4D9
:102C50008021416201207047006842690A43426155
:102C600000207047F0B590F820500468A468012D4A
:102C700005D0022D03D0416A41F480215DE014F0BB
:102C8000406F01D1E50055D5C4F30164022C03D98E
:102C9000416A41F4000150E00125A5401D608B68A8
:102CA0004FF4C0759BB1CE6833434E6843EAC60308
:102CB000066805EB0417F3514FF4C273076803EB82
:102CC00004130E69FE50097D012905D009E00E8824
:102CD000CB6843EA4653EBE70168CE5846F480766A
:102CE000CE501179D379567941EA036193791B0467
:102CF00043EA062319434FF4C676036806EB04162D
:102D000099511178D37841EA0361937852781B0482
:102D100043EA022211434FF4C473026803EB041325
:102D2000D150006805EB0411425842F001024250B4
:102D30000020F0BD416A41F4001141620120F0BD64
:102D400010B590F82020012A07D0022A05D0416A48
:102D500041F480214162012010BD3B48D0F800229F
:102D600042F00102C0F80022D0F8002222F47C5286
:102D7000C0F80022D0F800224B6A42EA0322C0F8D1
:102D800000220A7D02F01F0301229A40D0F81C3273
:102D90009343C0F81C32CB69B3B9D0F80C329343DB
:102DA000C0F80C328C894B6864F31F434C6900EB0C
:102DB000C404C4F840320C890B6864F31F434C69A7
:102DC00000EBC404C4F84432CB69012B16D1D0F80F
:102DD0000C321343C0F80C320C884B6864F31F4369
:102DE0004C6900EBC404C4F840320C89CB6864F32E
:102DF0001F434C6900EBC404C4F844328B69002BB8
:102E0000D0F804320ED01343C0F804320B69002B03
:102E1000D0F8143208D01343C0F81432096A0129DB
:102E200004D008E09343EFE79343F5E7D0F81C1292
:102E30001143C0F81C12D0F8001221F00101C0F8B3
:102E40000012002010BD000000640040704730B543
:102E500090F82040012C05D0022C03D0416A41F4A7
:102E600080215DE00468002955D02469A40754D06E
:102E70004FF4D874056804EB01142D5915F00405BE
:102E8000956005682D594ED0ED08556005682C59A0
:102E900004F00204D4604FF4DA74056804EB011402
:102EA0002D5905F00F05156105682D59C5F3072546
:102EB000956105682C59240C54614FF4DC72046848
:102EC00002EB0112A4581C700468A458240A5C7018
:102ED0000468A458240C9C700468A258120EDA707E
:102EE0004FF4DE72046802EB0112A4581C710468EE
:102EF000A458240A5C710468A458240C9C710468CA
:102F0000A258120EDA71006881B1016941F0200106
:102F10000161002030BDE468A8E7416A41F4001176
:102F20004162012030BD6D0D1560AFE7C16841F011
:102F30002001C160EDE72DE9F05F0546006800243F
:102F40004669D0F804908768D0F80CB0D0F810A08B
:102F5000D0F81880F10748D0F90714D0012181601A
:102F6000B80703D5284600F048FA0CE0780702D5E8
:102F70004FF4006407E0380702D54FF4805402E0B4
:102F8000284600F039FAF80516D529684FF4807004
:102F90008860B80503D5284600F031FA0CE07805C2
:102FA00002D544F4005407E0380502D544F48044C7
:102FB00002E0284600F022FAF80316D529684FF4FB
:102FC00080308860B80303D5284600F01AFA0CE078
:102FD000780302D544F4004407E0380302D544F4F2
:102FE000803402E0284600F00BFA300707D55FEA8C
:102FF000CB6004D52968102044F40074C8607007C1
:103000004FF0080707D55FEA0B7004D52868C76042
:10301000284600F097F9B00706D52868C0688007F1
:1030200002D0284600F090F9700607D55FEACA6022
:1030300004D52968102044F480640861B00607D5DF
:103040005FEA0A7004D528680761284600F0A6F9EF
:10305000F00606D528680069800702D0284600F0EF
:103060009EF9B00308D55FEAC96005D5296810202C
:103070004860284600F094F9F00307D55FEA09702C
:1030800004D528684760284600F0BCF9300446D5CE
:103090005FEA497040D5F00504D55FEAC87001D0F9
:1030A00044F00104B00504D55FEA887001D544F00E
:1030B0000204700504D55FEA487001D544F00404A9
:1030C000300529D518F0700F26D008F07000402880
:1030D00015D006DC102809D020280AD0302816D1B7
:1030E0000AE050280ED0602811D10EE044F0080408
:1030F0000DE044F010040AE044F0200407E044F03E
:10310000400404E044F0800401E044F48074286842
:10311000816921F070018161296804204860002CD8
:1031200005D0686A204368622846FFF78FFEBDE835
:10313000F09F70B5040003D094F8200010B104E0B3
:10314000012070BD204600F081F82068016841F040
:103150000101016000F024FC0546052604E000F0B2
:103160001FFC401B0A2811D820684068C007F6D011
:103170002068016821F00201016000F011FC0546A1
:103180000BE000F00DFC401B0A2806D9606A40F4F1
:103190000030606284F82060D2E7206840688007D1
:1031A000EFD4207E0128206801683DD021F0800105
:1031B0000160607E01282068016838D021F040015C
:1031C0000160A07E01282068016833D021F0200131
:1031D0000160E07E0128206801682ED041F01001D6
:1031E0000160207F01282068016829D021F00801B2
:1031F0000160607F01282068016824D021F004016B
:103200000160D4E902010843D4E9041211430843E0
:103210006168491E08432168C8610020606201207E
:1032200084F82000002070BD41F08001C0E741F02B
:103230004001C5E741F02001CAE721F01001CFE7C6
:1032400041F00801D4E741F00401D9E7F0B587B0B7
:10325000044614216846FDF797F93549354ADFF8E9
:10326000CCE00868D4F800C0324B032402250926BC
:1032700010320027401CF44521D10860012807D1F5
:10328000106840F000701060106800F00070059049
:10329000186840F00800186018688DE8B00000F069
:1032A0000800CDE9046069460394234800F08AFAD7
:1032B00000220521142000F011FC142031E0DFF879
:1032C0007CE0F4452FD1D2F800C04CF0806CC2F8FD
:1032D00000C0D2F800C001280CF0806CCDF814C0FA
:1032E000086007D1106840F000701060106800F0AE
:1032F00000700590186840F0020018601868694670
:1033000000F00200059060208DE8A100CDE90346A1
:103310000B4800F057FA00220521402000F0DEFBA8
:10332000402000F0CDFB07B0F0BD0000006400407D
:10333000500C002030380240000C02400068004071
:103340000004024070470000114910B588420DD1B9
:10335000104B00211C46A3F11C02FFF778FD0D481D
:1033600021461C380068FDF7E3FD10BD0A4988427C
:10337000FBD1084B002124331C46A3F11C02FFF7AC
:1033800066FD0448214608300068FDF711FE10BDB7
:10339000F4170020881200201C1800207047704786
:1033A000704770B5044690F82000012804D0606A88
:1033B00040F40020606217E0022084F820002068BA
:1033C000016821F00101016000F0EAFA05460DE014
:1033D00000F0E6FA401B0A2808D9606A40F4003081
:1033E0006062052084F82000012070BD20684068DC
:1033F000C007EDD1606270BD70477047704770477D
:103400007047704770472DE9F0410446876D00F022
:10341000C7FA054694F835000026022806D0802019
:10342000606584F834600120BDE8F081206801689F
:1034300021F0160101602068416921F0800141619D
:10344000206C08B9A06C20B12068016821F0080147
:1034500001602068016821F0010101600CE000F0CA
:103460009FFA401B052807D920206065032084F8B7
:10347000350084F83460D7E720680068C007EED1D3
:1034800094F85C103F208840B860012084F8350033
:1034900084F834600020C7E790F83510022903D083
:1034A0008021416501207047052180F835100068B2
:1034B000016821F001010160002070472DE9F84307
:1034C00004464FF00009CDF8009063484FF41651C0
:1034D000A56D0068B0FBF1F72E6894F85C20082118
:1034E00001FA02F030420FD02068026852070BD573
:1034F000026822F00402026094F85C008140A96036
:10350000606D40F00100606594F85C104FF00108B8
:1035100008FA01F0304208D021684969090604D54B
:10352000A860606D40F00200606594F85C100420B3
:103530008840304208D021680968890704D5A8600E
:10354000606D40F00400606594F85C1010208840C5
:10355000304218D021680968090714D5A86020688E
:103560000168490304D50068000308D5A16C07E091
:103570000168C90503D4016821F008010160216CCC
:1035800009B12046884794F85C10202088403042DA
:1035900031D021680968C9062DD5A86094F8350096
:1035A00005282068016806D0490347D50068000354
:1035B0001DD4616C1CE021F0160101602068416996
:1035C00021F080014161206C08B9A06C20B1206815
:1035D000016821F00801016094F85C103F208840E8
:1035E000A86084F8358084F83490216D1FE0E16B89
:1035F00009B120468847606D00282BD0606DC00758
:1036000014D0052084F835002068016821F00101FC
:1036100001600098401C0090B84203D82068006800
:10362000C007F6D184F8358084F83490E16C002925
:1036300010D001B02046BDE8F04308470168C90535
:10364000D5D4016821F01001016084F8358084F838
:103650003490CCE7BDE8F883600C00202DE9F04100
:10366000044600F09DF905465CB1022084F835005F
:10367000002684F834602068016821F001010160AF
:103680000DE00120BDE8F08100F08AF9401B05281B
:1036900005D920206065032084F83500F2E7206812
:1036A0000068C007F0D121680A6820480240D4E9C8
:1036B00001031843D4E903352B43184363691843C6
:1036C000A3691843E3691843236A18431043626AE5
:1036D000042A03D1D4E90B231A431043086020685D
:1036E0004069656A20F0070128460D430127042838
:1036F0000CD1A06A0543E06A40B12046FFF7DEF82E
:1037000020B14020606584F83570BAE720684561D3
:103710002046FFF7BFF894F85C203F21914081607C
:10372000666584F835700020ACE700003F8010F03B
:103730002DE9F0410446866D90F8340000250128FB
:103740000DD0012084F8340094F835700020012F4A
:1037500007D084F8340002252846BDE8F081022015
:10376000FBE7022784F8357060652046FFF7D0F844
:1037700094F85C103F208840B0602068016841F0F8
:1037800016010160206C20B12068016841F0080139
:1037900001602068016841F001010160DCE7000080
:1037A00070B5044600F0FCF80546601C02D00448E1
:1037B0000078044400F0F4F8401BA042FAD370BD36
:1037C000540C00202DE9F84FDFF89C910022A9F15C
:1037D000040B03274FF00F0C09F1040AABF1040EA0
:1037E00001250B6895402B40AB426ED10C7904F05B
:1037F0000304012C01D0022C15D18668540007FA6D
:1038000004F826EA0806D1F80C8008FA04F848EA19
:103810000608C0F808804468AC430D79C5F300156C
:103820009540254345600C79E443A40708D0C5685A
:10383000540007FA04F6B5438E68A6402E43C660CE
:103840000C7904F00304022C11D1D40800EB840697
:10385000356A5407E40E0CFA04F825EA0805D1F895
:10386000108008FA04F848EA0508C6F820800568C0
:10387000540007FA04F6B5430E7906F00306A64095
:103880002E4306604C6814F4403F66D0374C2568E0
:1038900045F480452560246822F0030504F4804443
:1038A0000094334C05EB0408D8F808589407260F09
:1038B0000CFA06F4A5432F4CA04201D1002424E0C9
:1038C0002D4CA04202D101241FE046E02B4CA04227
:1038D00001D1022419E02A4CA04201D1032414E0B2
:1038E000284CA04201D104240FE0274CA04201D172
:1038F00005240AE0254CA04201D1062405E0244C11
:10390000A04201D1072400E00824B4402C43C8F8A9
:103910000848D9F800404D464E689C43F60200D551
:103920001C432C60DAF8004055464E689C43B602B2
:1039300000D51C432C60DBF800405D464E689C437C
:10394000B60300D51C432C60DEF8004075464E6877
:103950009C43F60300D51C432C60521C102AFFF434
:103960003FAFBDE8F88F0000083C014044380240FA
:103970000030014000000240000402400008024004
:10398000000C0240001002400014024000180240E7
:10399000001C02400AB1816170470904FBE7000086
:1039A0000148806870470000540C0020024881687C
:1039B0000278114481607047540C00200B4810B508
:1039C000016841F400710160016841F480610160A7
:1039D000016841F480710160032000F09FF80F201E
:1039E00000F006F800F050F8002010BD003C024046
:1039F00030B50546204887B00024016841F0010138
:103A00000160006806A900F001000590684600F01A
:103A100031F90398B0B100F04DF9400017494FF06B
:103A20008042B0FBF1F11648491E026040F2E732D5
:103A3000C0E90324C0E90114846100F0EBFE040036
:103A400003D015E000F036F9E8E70D4800F02EFF4E
:103A500004000DD11C2000F033F8102D07D20022F5
:103A600029461C2000F03AF80648056000E00124D1
:103A700007B0204630BD00004038024040420F00F1
:103A8000981D0020580C00200C4882B0016841F4B9
:103A900080410160006800F4804000900748001FEA
:103AA000016841F0805101600068002200F0805000
:103AB00000900F21901E02B000F010B84438024070
:103AC000002809DB00F01F0201219140400980001D
:103AD00000F1E020C0F8001170470000F0B40E4B78
:103AE0001B68C3F30223C3F10704042C00D9042488
:103AF0001D1D072D01D2002300E0DB1E012606FA62
:103B000004F56D1E0D409D409E40761E164045EA10
:103B10000601F0BC03F0FCBD0CED00E0064A00F02D
:103B2000070110684FF6FF03184040EA01200349DF
:103B300008431060704700000CED00E00000FA053B
:103B40002DE9F0470D46040065D0DFF81491D9F84F
:103B50000000EFB200F00700A84207D289F8007019
:103B6000D9F8000000F00700A84254D120683D4E6B
:103B7000810712D5400703D5306840F4E05030602B
:103B80002078000703D5306840F46040306030682A
:103B9000A16820F0F000084330602078C0072DD0E5
:103BA000304960680839012812D0022813D0032850
:103BB00011D00968890700292DDA316821F0030145
:103BC00001433160FFF7ECFE804641F2883A0EE097
:103BD00009688903EFE709688901ECE7FFF7E0FE70
:103BE000A0EB0801514502D90320BDE8F0873068F9
:103BF000616800F00C00B0EB810FEFD1D9F8001034
:103C0000484601F00701A94207D90770006800F093
:103C10000700A84201D00120E7E72078400705D53A
:103C20003068E16820F4E0500843306020780007F5
:103C300006D53068216920F4604040EAC100306058
:103C400000F058F83168084AC1F30311515CC840CC
:103C50000649086006480068FFF7CAFE0020C4E76E
:103C6000003C02400838024030E50008600C0020AB
:103C7000580C00200F2202600C4A136803F0030363
:103C80004360136803F0F0038360136803F4E053A8
:103C9000C36012684FF4E05303EAD20202610448A1
:103CA000006800F007000860704700000838024014
:103CB000003C02400448054900680968044AC1F311
:103CC0008221515CC8407047600C002008380240D7
:103CD00040E500080448054900680968044AC1F342
:103CE0004231515CC8407047600C002008380240E7
:103CF00040E50008154810B5006810F00C011448A4
:103D000013D0144B04290FD008290ED10F4C241FB7
:103D1000216801F03F022168490207D52068C0F3FD
:103D20008810A0FB030106E0184610BD2168C1F30E
:103D30008811A1FB00010023FCF716FB2168C1F3E9
:103D40000141491C4900B0FBF1F010BD08380240A8
:103D50000024F40040787D012DE9F84F040075D06F
:103D60002078DFF838A3C007AAF1040548D00AF18B
:103D700004000168C1F38101012908D00068C0F383
:103D8000810002280AD1DAF80000400206D528682E
:103D9000800335D560680028E1D031E06068B0F577
:103DA000803F10D0B0F5A02F286810D020F48030CC
:103DB0002860286820F4802028606068A0B1FFF7A0
:103DC000EFFD06460CE0286840F48030F4E740F44C
:103DD00080202860F7E7FFF7E3FD801B642871D897
:103DE00028688003F7D50BE0FFF7DAFD064604E00C
:103DF000FFF7D6FD801B6428F1D828688003F7D42C
:103E00002078DFF89C9280074FF0000B3DD5A34847
:103E1000001D016811F00C0F08D00068C0F381008C
:103E200002280AD1DAF80000400206D42868800788
:103E300015D5E068012809D111E0E068B8B101208A
:103E4000C9F80000FFF7ACFD064605E022E1FFF7E8
:103E5000A7FD801B0228C2D828688007F7D52868EC
:103E6000216920F0F80040EAC10028600DE0C9F89F
:103E700000B0FFF795FD064604E0FFF791FD801BBB
:103E800002281FD828688007F7D42078000722D599
:103E9000824F84486169703771B101210160FFF779
:103EA0007FFD064604E0FFF77BFD801B022809D852
:103EB00038688007F7D50EE0C0F800B0FFF770FD56
:103EC000064605E082E0FFF76BFD801B02287DD8E7
:103ED00038688007F7D42078400765D56F484FF0E1
:103EE00000083C300068C0000BD46C483C300168CE
:103EF00041F08051016000684FF0010800F08050EF
:103F00000090694F3868C0050FD4386840F480705D
:103F10003860FFF745FD064604E0FFF741FD801BD2
:103F2000022853D83868C005F7D55C4FA0686C37B5
:103F300001280FD00528386810D020F00100386023
:103F4000386820F004003860A068B0B1FFF728FDA1
:103F500006460EE0386840F00100F4E740F0040047
:103F60003860F7E7FFF71CFD811B41F28830814282
:103F700063D838688007F5D50DE0FFF711FD0646D8
:103F800006E0FFF70DFD811B41F28830814254D8D5
:103F900038688007F5D4B8F1000F05D03F483C30B1
:103FA000016821F080510160A069B8B33B49091D47
:103FB0000968C1F38101022946D00228584606D07B
:103FC000C9F86000FFF7ECFC044639E035E04F46E5
:103FD000C9F86000FFF7E4FC064604E0FFF7E0FCE8
:103FE000801B022829D828688001F7D4D4E907016A
:103FF0000843A16A2D4A490802EB0141626A41EA7D
:104000008211084394F82C1040EA0161CAF80010AC
:1040100001203866FFF7C4FC044605E03CE0FFF7EA
:10402000BFFC001B022808D828688001F7D533E0C0
:10403000FFF7B6FC001B022802D90320BDE8F88F69
:1040400028688001F4D427E00128F7D0DAF80000CE
:10405000E26900F4800191421CD1226A00F03F0124
:10406000914217D147F6C071626A0140B1EB821FDD
:1040700010D1A26A4FF0FF3300F4403103EB52023B
:10408000B1EB024F06D194F82C1000F07060B0EB49
:10409000016F01D00120D1E70020CFE704380240B2
:1040A00000004742800E4742007000400000FFFFC2
:1040B0007047000038B5016804464A688868C04304
:1040C000430606D5C30704D1D3435B0601D4216C54
:1040D00005E0830708D4D3431B0605D4616C01B007
:1040E0002046BDE830400847830603D5430601D586
:1040F000C30551D4D3439B064ED443060AD494F847
:104100005130032B49D0636D43F004036365CB68E2
:104110008B680093830609D4636D43F001036365E4
:104120008B6800930B6823F040030B60C00506D436
:10413000606D40F008006065206880680090606DE8
:10414000002829D02068416821F0E0014160012069
:1041500084F85100900701D4D00722D0206841682C
:1041600021F003014160114DE06C40B10565E06C48
:10417000FFF792F918B1606D40F040006065A06CE7
:10418000002809D00565A06CFFF786F9002803D048
:10419000606D40F04000606538BDC8688868009078
:1041A00038BD2046FFF784FF38BD00008963000852
:1041B00070B5040009D0606A002540B125616561D1
:1041C000A56294F8510040B10CE0012070BD606818
:1041D000B0F5827FF4D0E561F2E784F850502046D4
:1041E00000F044F8022084F851002068016821F0B2
:1041F00040010160A088218900F4827001F404412B
:104200000843A18901F400610843217C01F0020107
:104210000843217D01F001010843218B01F4007165
:104220000843217F01F03801084394F8201001F081
:1042300080010843218D01F4005108432168086082
:10424000A069042101EA104094F8241001F0100143
:104250000843216848602068C16921F40061C16198
:104260006565012084F85100002070BD10B586B04E
:10427000044614216846FCF787F9184920688842EB
:1042800029D117480021026842F480420260006888
:1042900000F48040059012481038026842F0020293
:1042A0000260006800F0020005904FF4604000904A
:1042B0000220CDE901010320039005200490694606
:1042C0000848FFF77FFA002205212420FFF706FCAB
:1042D0002420FFF7F5FB06B010BD000000380040B9
:1042E00040380240000402402DE9F84F044640687F
:1042F00000261D46904689464FF0040BB0F5827F9C
:1043000001D1A06888B194F85000012817D001208D
:1043100084F85000FFF744FB074694F851004FF033
:10432000000A01280DD002267EE084F851B00093E7
:1043300013460A46204600F036F9BDE8F88F022001
:10434000FBE7B9F1000F6ED0B8F1000F6BD084F825
:1043500051B0C4F854A0C4F83890A4F83C80A4F834
:104360003E80C4F830A0A4F834A0A4F836A0C4F865
:1043700040A0C4F844A0A068B0F5004F09D120685F
:10438000016821F0400101602068016821F480414A
:10439000016020680168490603D4016841F04001CA
:1043A0000160E068B8B131E020688168C90709D0D0
:1043B000007BA16B0870A06B401CA063E08F401EC7
:1043C000E08708E0FFF7ECFAC01BA84202D3681CA4
:1043D00001D031E07DB3E08F0028E5D119E02068FD
:1043E0008168C90709D0C068A16B0880A06B801CD8
:1043F000A063E08F401EE08708E0FFF7D1FAC01B02
:10440000A84202D3681C01D016E0A5B1E08F0028B5
:10441000E5D13A462946204601F0BEFF08B12020EA
:104420006065606D00B10126012084F8510084F8B8
:1044300050A0304681E7FFE70326F5E72DE9F84F66
:10444000044690F8500000261D46904689460128F3
:104450000ED04FF0010B84F850B0FFF7A1FA0746D9
:1044600094F851004146B246012804D0022694E057
:104470000220BDE8F88FB9F1000F74D0B8F1000F39
:1044800071D0032084F85100C4F854A0C4F83090CF
:10449000A4F83480A4F83680C4F838A0A4F83CA06E
:1044A000A4F83EA0C4F844A0C4F840A0A068B0F5A9
:1044B000004F09D12068026822F0400202602068A3
:1044C000026842F48042026020680268520603D407
:1044D000026842F040020260E068B0F5006F606878
:1044E00003D028B3012923D03FE008B101291BD113
:1044F000206B21680088C86006E020688168890711
:1045000009D5216B0988C160206B801C2063E08E77
:10451000401EE08608E0FFF743FAC01BA84202D322
:10452000681C01D030E075B3E08E0028E5D11FE0B3
:10453000206B21680078087306E02068816889078D
:1045400009D5216B09780173206B401C2063E08E34
:10455000401EE08609E0FFF723FAC01BA84203D300
:10456000681C02D010E017E06DB1E08E0028E4D1A5
:104570003A462946204601F03DFF08B120206065FB
:10458000A06818B106E0FFE7032606E02068C168CE
:1045900080680090606D00B1012684F851B084F805
:1045A00050A0304665E72DE9F84F044690F85000DA
:1045B00001250A9E1F4692468B464FF000080128AF
:1045C0000ED0012084F85000FFF7EAF9814694F8F4
:1045D0005100616801280CD0B1F5827F07D102E05B
:1045E0000220BDE8F88FA16809B9042801D0022093
:1045F000B6E0BBF1000F27D0BAF1000F24D01FB3F3
:1046000094F85100042802D0052084F851000020BD
:104610006065C4F838A0E787A787C4F830B0E7869C
:10462000A7862064606420680168490603D4016895
:1046300041F040010160E068B0F5006F606805D0AE
:10464000E8B3012F43D079E0012089E008B1012FC0
:1046500034D1206B21680088C860206B801C2063E7
:10466000E08E401EE08629E02068816889070DD52C
:10467000E18E59B1012D09D1216B0988C160206BF0
:10468000801C2063E08E401EE08600252068816843
:10469000C9070BD0E18F49B1C068A16B0880A06B3E
:1046A000801CA063E08F401EE0870125FFF778F9AA
:1046B000A0EB0900B04201D3701C50D100E006E02D
:1046C000E08E0028D0D1E08F0028CDD13CE0206BD7
:1046D000216800780873206B401C2063E08E401E28
:1046E000E0862BE02068816889070DD5E18E59B1FD
:1046F000012D09D1216B09780173206B401C2063C7
:10470000E08E401EE086002520688168C9070BD036
:10471000E18F49B1C068A16B0870A06B401CA06319
:10472000E08F401EE0870125FFF73AF9A0EB090072
:10473000B04202D3701C01D011E086B1E08E002897
:10474000D0D1E08F0028CDD14A463146204601F035
:1047500051FE38B120204FF00108606508E00320C9
:10476000804605E0A06818B92068C168806800909C
:10477000012084F85100002084F85000404630E7C2
:104780007047704770B590F83C20012A32D001255F
:1047900080F83C50022280F83D20026853689468FB
:1047A00023F070060B6833435360134B02689A4240
:1047B00014D0B2F1804F11D0104B9A420ED0104B52
:1047C0009A420BD00F4B9A4208D00F4B9A4205D019
:1047D0000E4B9A4202D00E4B9A4204D1496824F003
:1047E00080031943916080F83D50002180F83C100F
:1047F000084670BD022070BD00000140000400406A
:1048000000080040000C004000040140004001404E
:104810000018004010B5040003D094F83D0010B11A
:1048200007E0012010BD002084F83C00204600F085
:104830001FF8022084F83D00211D206801F0D4FFFC
:10484000012084F8460084F83E0084F83F0084F894
:10485000400084F8410084F8420084F8430084F862
:10486000440084F8450084F83D00002010BD00009D
:1048700008B500680B49884212D10B48016841F025
:10488000040101600068002200F00400009005218E
:104890001E20FFF723F9BDE808401E20FFF710B9DE
:1048A00008BD0000000800404038024090F83D106C
:1048B000012901D001207047022180F83D100168D4
:1048C000CA6842F00102CA6000681149884214D0E7
:1048D000B0F1804F11D00F4988420ED00E49884266
:1048E0000BD00E49884208D00D49884205D00D49A9
:1048F000884202D00C49884204D1816801F0070146
:10490000062903D0016841F00101016000207047D1
:10491000000001400004004000080040000C00407E
:1049200000040140004001400018004070B50446FA
:1049300090F83C000025012817D0012684F83C603F
:10494000022084F83D002068826822F0770222F479
:104950007F4282600868502838D00DDC20284FD074
:1049600005DC90B3102811D14AE0022070BD302838
:1049700046D040280AD13BE060282FD070280DD0C7
:10498000B0F5805F03D0B0F5005F12D0012584F848
:104990003D60002084F83C00284670BDCB68D1E91A
:1049A0000121206801F084FF2068816841F07701CF
:1049B00009E0CB68D1E90121206801F079FF206886
:1049C000816841F480418160E1E719E0CA68496883
:1049D000206801F07FFF5021206806E0CA6849681E
:1049E000206801F088FF6021206801F06BFFCEE7AE
:1049F000CA684968206801F06DFF40212068F4E72B
:104A0000226801461046F0E7704770B5044600681A
:104A100001694FF00005C943890715D4C168C9432E
:104A2000890711D4E91E016101202077206880697F
:104A30008007204602D0FFF7E7FF04E000F098F877
:104A4000204600F096F8257720680169C943490798
:104A500017D4C168C943490713D46FF00401016139
:104A6000022020772068806910F4407F204602D021
:104A7000FFF7CAFF04E000F07BF8204600F079F869
:104A8000257720680169C943090716D4C168C9435D
:104A9000090712D46FF00801016104202077206813
:104AA000C0698007204602D0FFF7AEFF04E000F0A7
:104AB0005FF8204600F05DF8257720680169C9435A
:104AC000C90617D4C168C943C90613D46FF01001D1
:104AD0000161082020772068C06910F4407F2046DB
:104AE00002D0FFF791FF04E000F042F8204600F00A
:104AF00040F8257720680169C943C90708D1C16812
:104B0000C943C90704D1891E0161204600F032F86B
:104B100020680169C943090609D4C168C943090667
:104B200005D46FF0800101612046FFF729FE20685F
:104B30000169C943490609D4C168C943490605D476
:104B40006FF040010161204600F02AF820680169F9
:104B5000C94389060BD4C168C943890607D46FF0DD
:104B6000200101612046BDE87040FFF70ABE70BD1C
:104B70007047704710B5044600680749884202D163
:104B80000648C16988472068B0F1804F03D1BDE86D
:104B90001040FEF70BBF10BD0008004014040020B9
:104BA0007047704770470000F8B501680446086810
:104BB000CA684B6910F00F0F4FF0000559D003F091
:104BC000010602F49077374365D0C10705D0D105BF
:104BD00003D5216C41F001012164410705D5D907B6
:104BE00003D0216C41F002012164810705D5D9076A
:104BF00003D0216C41F004012164010707D502F0C4
:104C00002001314303D0216C41F008012164216C63
:104C100000293AD0800604D5900602D5204602F03D
:104C2000B5F820684069216CC0F38010090700D4F2
:104C300060B3204602F075F820684069400621D52F
:104C40002068143050E8001F21F0400140E80012B5
:104C5000002AF5D1A06BA8B16C490165A06BFEF7E5
:104C60001BFC002811D0A06B016D01B0BDE8F04025
:104C7000084783060FD593060DD52046BDE8F840BA
:104C800002F084B82046FFF78DFFF8BD2046FFF7FD
:104C900089FF2564F8BD266B2023012E79D1C60635
:104CA00077D5D60675D508684868009048694006EB
:104CB00040D5A16B086840680004000CEAD0A28DC2
:104CC0008242E7D9E085C869B0F5807F2DD02068A1
:104CD0000C3050E8001F21F4807140E80012002AD7
:104CE000F5D12068143050E8001F21F0010140E8A0
:104CF0000012002AF5D12068143050E8001F21F07E
:104D0000400140E80012002AF5D184F83E302563C6
:104D100020680C3050E8001F21F0100140E800121C
:104D2000002AF5D1A06BFEF76EFBA08DE18D401A35
:104D300081B229E0A08DE18D401A81B2E08D00287A
:104D4000A8D00029A6D020680C3050E8002F22F40B
:104D5000907240E80026002EF5D12068143050E80B
:104D6000002F22F0010240E80026002EF5D184F841
:104D70003E30256320680C3050E8002F22F01002EE
:104D800040E80023002BF5D12046FFF70AFFF8BDCD
:104D9000FFE705062BD5150629D594F83D002128F7
:104DA000F5D1A068B0F5805F01D12069B0B1206A6B
:104DB000411C2162216800784860E08C401E00049C
:104DC000000CE084E3D12068C16821F08001C1605B
:104DD0002068C16841F04001C160D8E7206A0088BE
:104DE000C0F308004860206A801C2062E5E74006A6
:104DF000CDD55006CBD5CA68204622F04002CA6005
:104E000084F83D3000F08EFAC1E700007D6C0008A8
:104E100070B5040004D094F83D00002510B106E000
:104E2000012070BD84F83C50204600F023F8242077
:104E300084F83D002068C16821F40051C16020461B
:104E400002F004F82068016921F4904101612068B2
:104E5000416921F02A0141612068C16841F4005193
:104E6000C1602564202084F83D0084F83E000020C5
:104E700070BD00002DE9F04F87B00446142168464C
:104E8000FBF782FBF548DFF8D08310380222D4F814
:104E900000C0F24B0321DFF8C8E300259706061592
:104EA0004FF480794FF0400AC44557D1D3F800C081
:104EB000A8464CF4002CC3F800C01B6803F4002380
:104EC0000593036843F001030360006800F00100EC
:104ED00005908DE826000820CDE90310694670464C
:104EE000FEF770FCDFF880B3DE495846CBF80010BF
:104EF000C0E90175C0E90356CBF81450C0E9065962
:104F0000CBF82050CBF82450FEF7A8FB08B1FDF7F2
:104F100055FED54DD348C4F838B060353030CBF8A5
:104F2000384085E88104C5E90386C5F81480C5F8D2
:104F30001880C5F81C80C5F820802846C5F8248054
:104F4000FEF78CFB08B1FDF739FE656300220521F1
:104F50003420AC63FEF7C2FD342070E0DFF80C8330
:104F6000C44572D1D3F800C000254CF4801CC3F8AE
:104F700000C01B6803F480130593036843F0040327
:104F80000360036803F004030593036843F0080318
:104F9000036000688B4600F0080005904FF48050D5
:104FA000CDE9000202950820CDE903B0904669469C
:104FB000AF48FEF707FC0420CDE900080295082061
:104FC000CDE903B06946AB48FEF7FCFBDFF89882F9
:104FD000A44908F1C00830394046C8F80010C0E9BB
:104FE0000175C0E90356C8F81450C0E90659C8F85D
:104FF0002050C8F82450FEF731FB08B1FDF7DEFD64
:1050000098489D4DC4F838807830C8F8384085E815
:1050100081040020C5E903066861A861E86128628F
:1050200068622846FEF71AFB08B1FDF7C7FD656305
:10503000002205213520AC63FEF750FD3520FEF738
:105040003FFD07B0BDE8F08FFFE7DFF830824FF09B
:10505000070BC44559D1814B1B1DD3F800C04CF040
:10506000100CC3F800C01B6803F01003059303681D
:1050700043F0010303600068CDE9025100F0010034
:1050800005904FF4C060CDE90002CDF810B069463C
:105090007046FEF797FBDFF8E0B179490BF1600B42
:1050A0005846CBF80010C0E90175C0E90356CBF8AB
:1050B0001450C0E90659CBF82050B846CBF824501C
:1050C000FEF7CCFA08B1FDF779FD6B4FC4F838B0A4
:1050D000C037CBF83840C7E903567D61BD616848E9
:1050E000FD613D6278307D6287E801053846FEF754
:1050F000B5FA08B1FDF762FD67630022052125209E
:10510000BC63FEF7EBFC252099E7DFF87881C44506
:105110003FD1D3F800C04CF4003CC3F800C01B687A
:1051200003F400330593036843F001030360006850
:10513000CDE9025100F0010005900C20CDE90002FC
:10514000CDF810B069467046FEF73CFB4549DFF8E4
:10515000388148314046C8F80010C0E90175C0E9FF
:105160000356C8F81450C0E90659C8F82050C8F8CA
:105170002450FEF773FA08B1FDF720FDC4F838801B
:10518000002205212620C8F83840FEF7A7FC26207B
:1051900055E7DFF8F880C4457FF453AFD3F800C07B
:1051A000A8464CF4802CC3F800C01B6803F480238D
:1051B0000593036843F0020303600068CDE90251E0
:1051C00000F0020005904FF44060CDE90002CDF8F8
:1051D00010B069462E48FEF7F5FADFF8ACB0214969
:1051E0000BF1600B18395846CBF80010C0E9017577
:1051F000C0E90356CBF81450C0E90659CBF820504B
:10520000CBF82450FEF72AFA08B1FDF7D7FC1E4D63
:105210001448C4F838B0C0351830CBF8384085E8A9
:105220008104C5E90386C5F81480C5F81880C5F85F
:105230001C80C5F820802846C5F82480FEF70EFAA9
:1052400008B1FDF7BBFC6563002205212720AC6394
:10525000FEF744FC2720F2E6004C004040380240B4
:105260000000024040600240381A00200050004018
:1052700000080240000C0240581B002000100140B2
:105280004064024000440040781C00200048004078
:105290000004024070470000F7B5044690F83D0056
:1052A000202837D1019991B38AB394F83C000128A2
:1052B00030D0012084F83C002162A284E2840025E1
:1052C0002564212084F83D00636B1348D863636B29
:1052D00012481864636B1248D864606B1346056506
:1052E0002668606B321DFEF723FA21686FF04000DC
:1052F000086084F83C502068143050E8001F41F0EA
:10530000800140E80012002AF5D10020FEBDFFE731
:105310000120FBE70220F9E7D76C0008196D0008AF
:105320008D6C000870477047FDF73AF8012080F354
:105330001388BFF34F8F05480168054A01F4E06107
:1053400011430160BFF34F8F00BFFDE70CED00E09C
:105350000400FA0570B5394D686890F840000128DE
:1053600060D1374C2178A068084302D1FEF718FBC2
:10537000A060FEF715FBA168401AB0F5FA6F51D393
:1053800068682F49012590ED070A891CB5EEC00A0F
:10539000F1EE10FA3ED190ED060AB5EEC00AF1EE3C
:1053A00010FA37D190ED080AB5EEC00AF1EE10FA06
:1053B00030D190ED0A0AB5EEC00AF1EE10FA29D10B
:1053C00090ED090AB5EEC00AF1EE10FA22D190ED87
:1053D0000B0AB5EEC00AF1EE10FA1BD1A088401CF2
:1053E00080B2A080B0F57A7F1CD3088840F001001D
:1053F0000880FCF7D5FF85F31388BFF34F8F114862
:105400000168114A01F4E06111430160BFF34F8F5D
:1054100000BFFDE70020A0800A8822F001020A8078
:105420002570A0600948407B1A2805D1FCF7B8FF19
:10543000BDE8704001F01AB970BD000014040020EE
:10544000E00200200CED00E00400FA05C402002098
:10545000002801DD024600E042428A4205DD0028C4
:1054600000DD494200EB410000B2704706480749A1
:1054700090F8202008881AB120F04000088070477A
:1054800040F04000FAE70000D40B0020E2020020C8
:10549000104810B590F8832090F853110E480388F7
:1054A00082B123F0020303809BB271B123F00403A5
:1054B00003800AB100290BD1FCF772FFBDE8104050
:1054C00001F0D4B843F00203EDE743F00403EFE743
:1054D00010BD0000C0040020E2020020002813D00C
:1054E00010F8801F49B18178491CC9B28170427897
:1054F000914204D98270002105E0042103E0C178C3
:10550000002901D10121C1707047000000283CD062
:105510000021C0F88810C0F88C1001650122416597
:1055200080F88020642380F8813080F8821080F831
:10553000831080F884201549C0F894101449C0F8ED
:1055400098101449C0F89C101349C0F8A0101349D2
:10555000C0F8A4101249C0F8A8101249C0F8AC1045
:105560001149C0F8B0101149C0F8B4101049C0F882
:10557000B8101049C0F8BC100F49C0F8C0100F494E
:10558000C0F8C4100E49C0F8C8107047DD540008B8
:105590007B980008B18B000805B30008A9B2000889
:1055A000DDB900088FB90008B1B90008FFB90008DB
:1055B000C3B9000815BA0008A5B90008A3B90008C6
:1055C00097B9000810B5064C2046D4F890108847CB
:1055D00004F1D000D4F86011BDE810400847000085
:1055E000C004002010B5224CA4F160032068807C28
:1055F000C00703D093ED000A012102E093ED010AF8
:1056000000211B48583800F099FF2068807C8007F3
:1056100003D593ED000A012102E093ED010A002178
:105620001348543800F08AFF2068807C400703D577
:1056300093ED000A012102E093ED010A00210C48DC
:10564000503800F07BFF2068807C000703D593ED85
:10565000000A012102E093ED010A002104484C38C0
:1056600000F06CFF02F02CF8BDE81040FAF7F0BF34
:10567000A404002070B51A4D1A4C4FF480612878AC
:10568000C0070AD001222046FEF784F928884FF48B
:105690000061C00503D4002202E00022F3E70122EA
:1056A0002046FEF777F92A884FF40051900703D47B
:1056B000500701D4002200E001222046FEF76AF9DB
:1056C0002A884FF48041500603D4900601D400226A
:1056D00000E001222046BDE87040FEF75BB9000003
:1056E000E2020020000802402DE9F0410C460028AB
:1056F00049D0002C47D0DFF894C00022DFED240A07
:10570000571E0CF12006002112B1012A29D013E006
:105710005CF821E000EB810527E0B5EEC00AF1EE70
:1057200010FA2BD23B469E4506D0BEF1000F27D083
:10573000B1EE400A85ED000A491CC9B20829E3D33D
:10574000521CD2B2022ADED3014620221148FAF7B7
:10575000C7FE2146BDE8F0410E4820222030FAF76E
:10576000BFBE56F821E004EB810595ED000AB5EEC9
:10577000C00AF1EE10FAD0DD0123D4E70023D2E70E
:10578000C5ED000AD8E7BDE8F08100000CC40008B0
:1057900000000000980100200149C8737047000014
:1057A000C40200202DE9F743164D164688464FF4F3
:1057B0008054002221462846FEF7ECF80021012003
:1057C00002F0A4FA9DF800304FF47A7743F080009D
:1057D0008DF800003B46012269460B48FEF72EFE7D
:1057E0003B46721C41460848FEF77EFD0021012021
:1057F00002F08CFA012221462846FEF7CBF8BDE8DC
:10580000FE8300000004024044180020104810B538
:105810000E4901600321416000214FF400228160A4
:10582000C0E903124FF44012426101760122427630
:105830008276C17601774277FDF77BFC002803D0A2
:10584000BDE81040FDF7BAB910BD0000006400408B
:10585000F4170020104810B50E4901600321416083
:1058600000214FF400228160C0E903124FF440127E
:1058700042610176012242768276C17601774277D3
:10588000FDF757FC002803D0BDE81040FDF796B99E
:1058900010BD0000006800401C1800202D4808B50D
:1058A000016841F400110160016801F400110091E8
:1058B000016841F4800101600068002200F480006A
:1058C000009005210B20FEF709F90B20FEF7F8F8F0
:1058D000002205210C20FEF701F90C20FEF7F0F85C
:1058E000002205210D20FEF7F9F80D20FEF7E8F85B
:1058F000002205210E20FEF7F1F80E20FEF7E0F859
:10590000002205210F20FEF7E9F80F20FEF7D8F856
:10591000002205211020FEF7E1F81020FEF7D0F854
:10592000002205212F20FEF7D9F82F20FEF7C8F816
:10593000002205213A20FEF7D1F83A20FEF7C0F800
:10594000002205214620FEF7C9F8BDE808404620A0
:10595000FEF7B6B83038024010B5A4B01C221C497E
:105960006846FAF7BDFD0021684604F0C5FA194CF7
:1059700017491C2220601C3107A8FAF7B1FD00214D
:1059800007A804F0B9FA124960601C2238310EA849
:10599000FAF7A6FD00210EA804F0AEFA0C49A060AB
:1059A0001C22543115A8FAF79BFD002115A804F01C
:1059B000A3FA0749E0601C2270311CA8FAF790FD99
:1059C00000211CA804F098FA206124B010BD00004A
:1059D0009CE400083C0C00202DE9F04186B0142125
:1059E0006846FAF7D1FD27480024016841F0040118
:1059F0000160016801F004010591016841F0800136
:105A00000160016801F080010591016841F0010128
:105A10000160016801F001010591016841F0020196
:105A20000160016801F002010591016841F008017F
:105A300001600068144F00F008004FF4D84505904D
:105A4000012229463846FDF7A5FFDFF84080BE1445
:105A5000002231464046FDF79DFF00950125CDE926
:105A60000154694638460394FDF7ACFE0220CDE9A7
:105A70000240CDE9006569464046FDF7A3FE06B049
:105A8000BDE8F081303802400008024000040240C6
:105A9000104810B50E4901604FF482714160002139
:105AA0008160C1604FF400720161C0E905121022EB
:105AB000C0E90721416281620A21C162FEF778FBD9
:105AC000002803D0BDE81040FDF778B810BD0000F5
:105AD000003800404418002010B586B00024174854
